:020000040800F2
:100000000000082415160008C1120008C9120008D3
:10001000D1120008D9120008E11200080000000007
:10002000000000000000000000000000E9120008CD
:10003000F712000800000000051300081313000861
:100040006916000869160008691600086916000894
:100050006916000869160008691600086916000884
:100060006916000869160008691600086916000874
:100070006916000869160008691600086916000864
:100080006916000869160008691600086916000854
:100090006916000869160008691600081F13000891
:1000A0006916000869160008691600086916000834
:1000B0006916000869160008691600086916000824
:1000C0006916000869160008691600086916000814
:1000D0006916000869160008691600086916000804
:1000E000691600086916000800000000691600087B
:1000F00069160008691600086916000869160008E4
:1001000069160008691600086916000869160008D3
:1001100069160008691600086916000869160008C3
:1001200069160008691600086916000869160008B3
:1001300069160008691600086916000869160008A3
:1001400000000000000000000000000000000000AF
:100150006916000869160008691600086916000883
:100160006916000869160008691600086916000873
:1001700069160008691600086916000800000000EA
:100180006916000869160008691600086916000853
:100190006916000869160008691600086916000843
:1001A0006916000869160008691600086916000833
:1001B0006916000869160008691600086916000823
:1001C0006916000869160008691600086916000813
:1001D0006916000869160008691600086916000803
:1001E00069160008691600086916000869160008F3
:1001F00069160008691600086916000869160008E3
:1002000069160008691600086916000869160008D2
:1002100069160008691600086916000869160008C2
:100220006916000869160008691600080000000039
:100230006916000869160008000000006916000829
:100240006916000869160008691600086916000892
:100250006916000869160008691600086916000882
:100260006916000869160008691600086916000872
:1002700069160008691600086916000800000000E9
:1002800069160008691600086916000800000000D9
:080290000000000069160008DF
:1002A00010B5054C237833B9044B13B10448AFF3B0
:1002B00000800123237010BDF40100240000000021
:1002C000D411010808B5034B1BB103490348AFF330
:1002D000008008BD00000000F8010024D4110108CE
:1002E00001F0FF01102A2BDB10F0070F08D010F8E7
:1002F000013B013A8B422DD010F0070F42B3F6D1EB
:10030000F0B441EA012141EA014122F007047FF003
:1003100000070023F0E80256083C85EA010586EA5A
:10032000010685FA47F5A3FA87F586FA47F6A5FA96
:1003300087F68EB9EED1F0BC01F0FF0102F00702A2
:1003400032B110F8013B013A83EA010313B1F8D14D
:100350000020704701387047002D06BF354603382E
:10036000073815F0010F07D1013015F4807F02BF67
:10037000013015F4C03F0130F0BC0138704700BFB8
:10038000034613F8012B002AFBD1181A01387047D5
:1003900053B94AB9002908BF00281CBF4FF0FF31EC
:1003A0004FF0FF3000F088B9ADF1080C6DE904CED4
:1003B00000F006F8DDF804E0DDE9022304B0704740
:1003C0002DE9F047089D0F4604468C46002B48D186
:1003D0008A42164661D9B2FA82F34BB1C3F12002C8
:1003E00001FA03FC20FA02F29E4042EA0C0C9C4007
:1003F0004FEA164EB7B2BCFBFEF1220C0EFB11CC3D
:1004000042EA0C4201FB07F0904209D9B21801F10F
:10041000FF3C80F0EE80904240F2EB8002393244A3
:10042000121AA4B2B2FBFEF00EFB102244EA024400
:1004300000FB07F7A74209D9341900F1FF3280F019
:10044000DA80A74240F2D7803444023840EA0140C3
:10045000E41B00211DB1DC400023C5E90043BDE8D9
:10046000F0878B4206D90DB1C5E90001002108468D
:10047000BDE8F087B3FA83F1002948D1BB4202D32B
:10048000824200F20781841A67EB0302012094463E
:10049000002DE4D0C5E9004CE1E7002A00F092808D
:1004A000B2FA82F3002B40F0A8808A1A4FEA164E67
:1004B0001FFA86FC0121200CB2FBFEF70EFB17226F
:1004C00040EA02420CFB07F0904207D9B21807F14C
:1004D000FF3802D2904200F2E2804746121AA4B2DC
:1004E000B2FBFEF00EFB102244EA02440CFB00FCBF
:1004F000A44507D9341900F1FF3202D2A44500F215
:10050000CB801046A4EB0C0440EA0740A2E7C1F1FF
:1005100020068B4022FA06FC4CEA030C07FA01F491
:1005200020FA06F3F7404FEA1C49234300FA01F88A
:100530001FFA8CFEB7FBF9F01C0C09FB107744EA9C
:10054000074400FB0EF7A74202FA01F20AD91CEB9E
:10055000040400F1FF3A80F09B80A74240F29880AB
:1005600002386444E41B9FB2B4FBF9F309FB134463
:1005700047EA044403FB0EFEA64509D91CEB04041C
:1005800003F1FF3780F08280A6457FD9023B6444A7
:1005900043EA0040A4EB0E04A0FB02E7BC42734612
:1005A000B94663D360D05DB1B8EB030264EB0904D4
:1005B00004FA06F622FA01F31E43CC40C5E90064B2
:1005C00000214CE76208480842EAC1710B0C43EA7B
:1005D00000438AB242EA0342B3FBF6F1E407B446B1
:1005E0003746B6461F23B0FBF6F0D21B41EA004166
:1005F00061E7614614E7104628E7C3F1200120FABD
:1006000001F29E4027FA01F19F403A434FEA164E0D
:100610001FFA86FCB1FBFEF70EFB1710110C41EA26
:10062000004107FB0CF8884504FA03F43AD9711825
:1006300007F1FF3001D288451FD8A1EB0801B1FBBB
:10064000FEF808FB0CF70EFB181192B242EA0142C9
:10065000BA422FD2B21808F1FF31C6D2BA42C4D280
:10066000A8F102013244C0E7F0459CD2BEEB020380
:1006700067EB0C070138B94695E7A6EB080841443B
:10068000B81EB1FBFEF808FB0CF7DCE73B467FE742
:10069000504667E70846FBE63444023832E7023F3B
:1006A00032441BE7A1EB08013846B1FBFEF808FB1A
:1006B0000CF7C8E7414698E7704700BF0FB480B514
:1006C00082B000AF07F114033B603B683A694FF416
:1006D00080710B480EF026FB0948FFF751FE0346D8
:1006E0007B607B689AB24FF0FF330549054805F0FF
:1006F00060FC00BF0837BD46BDE8804004B07047CD
:1007000090040024FC03002480B500AF00F020FB1F
:1007100000F0ACFF00F034F800F09CF800F046FA6E
:1007200000F04CF906F06AFD00F0F4F900F0F0F882
:1007300000F0AEF800F098F94FF4FA7001F028F8E4
:1007400007F01AFB0DF09EFA0CF078FF0CF0C8FDD4
:100750000DF0E4F8642107480DF0F2F80521064891
:100760000DF0EEF84FF4FA7104480DF0E9F80DF0D1
:1007700039F9FCE78DD6000869D300083D0D000863
:1007800080B59CB000AF07F124034C22002118462D
:100790000EF0D6FA3B1D2022002118460EF0D0FAAA
:1007A000022001F00BFE00233B60284BDB6A274A46
:1007B00023F00103D362254BDB6A03F001033B60A6
:1007C000234B9B6923F44043214A43F480439361C4
:1007D0001F4B9B6903F440433B603B6800BF1C4BCD
:1007E0009B6903F40053B3F5005FF8D102237B62E9
:1007F00001233B6340237B630023BB6407F1240395
:10080000184601F015FE0346002B01D000F0CCFA8B
:100810003F237B600023BB600023FB6000233B6120
:1008200000237B614023BB610023FB6140233B62CB
:100830003B1D0121184602F055FA0346002B01D05A
:1008400000F0B2FA00BF7037BD4680BD000400580A
:100850000048025880B5B0B000AF3B46C02200212E
:1008600018460EF06DFA4FF000424FF00003C7E952
:10087000002300237B653B46184602F0BFFD03467C
:10088000002B01D000F090FA00BFC037BD4680BDFC
:1008900080B500AF1B4B1C4A1A601A4B1B4A5A60AA
:1008A000184B00229A60174B0122DA60154B002288
:1008B0001A61144B00225A61124B00229A61114BAB
:1008C0000022DA610F4B00221A620E4801F042FC4E
:1008D0000346002B01D000F067FA0021094801F01F
:1008E000D5FC0346002B01D000F05EFA002105483C
:1008F00001F017FD0346002B01D000F055FA00BFB0
:1009000080BD00BF10020024001C0058BB7C70009A
:1009100080B500AF274B284A1A60264B4FF480025F
:100920005A60244B00229A60224B0722DA60214B46
:1009300000221A611F4B00225A611E4B4FF0806249
:100940009A611C4B4FF04052DA611A4B00221A6236
:10095000184B00225A62174B00229A62154B002254
:10096000DA62144B4FF080425A63124B00229A63B2
:10097000104B0022DA630F4B00221A640D4B002249
:100980005A640C4B00229A640A4B0022DA64094B29
:1009900000221A65074B00225A65064B00229A6511
:1009A000044804F057FB0346002B01D000F0FCF98B
:1009B00000BF80BD640200240030014080B500AF5C
:1009C000274B284A1A60264B4FF480025A60244B6A
:1009D00000229A60224B0722DA60214B00221A6122
:1009E0001F4B00225A611E4B4FF080629A611C4BD4
:1009F0004FF0E042DA611A4B00221A62184B0022D3
:100A00005A62174B00229A62154B0022DA62144B8D
:100A10004FF080425A63124B00229A63104B00221F
:100A2000DA630F4B00221A640D4B00225A640C4B00
:100A300000229A640A4B0022DA64094B00221A65EC
:100A4000074B00225A65064B00229A65044804F0C1
:100A500001FB0346002B01D000F0A6F900BF80BDCA
:100A6000EC0200240038004080B500AF274B284A34
:100A70001A60264B4FF480025A60244B00229A6081
:100A8000224B0722DA60214B00221A611F4B002201
:100A90005A611E4B4FF080629A611C4B4FF04052DE
:100AA000DA611A4B00221A62184B00225A62174B65
:100AB00000229A62154B0022DA62144B4FF08042FA
:100AC0005A63124B00229A63104B0022DA630F4BD9
:100AD00000221A640D4B00225A640C4B00229A64C7
:100AE0000A4B0022DA64094B00221A65074B0022E8
:100AF0005A65064B00229A65044804F0ABFA034697
:100B0000002B01D000F050F900BF80BD7403002419
:100B1000003C004080B500AF224B234A1A60214BB5
:100B20004FF4E1325A601F4B00229A601D4B0022A5
:100B3000DA601C4B00221A611A4B0C225A61194BC5
:100B400000229A61174B0022DA61164B00221A62CA
:100B5000144B00225A62134B00229A62114805F08E
:100B6000D8F90346002B01D000F01EF900210D48F2
:100B700006F079FA0346002B01D000F015F90021A8
:100B8000084806F0AEFA0346002B01D000F00CF93D
:100B9000044806F02FFA0346002B01D000F004F9B8
:100BA00000BF80BDFC0300240048004080B58AB02F
:100BB00000AF07F1140300221A605A609A60DA60ED
:100BC0001A61594BD3F8E030574A43F00103C2F899
:100BD000E030554BD3F8E03003F001033B613B6953
:100BE000514BD3F8E030504A43F00203C2F8E030F2
:100BF0004D4BD3F8E03003F00203FB60FB684A4B37
:100C0000D3F8E030484A43F00803C2F8E030464BDE
:100C1000D3F8E03003F00803BB60BB68424BD3F865
:100C2000E030414A43F00403C2F8E0303E4BD3F8D1
:100C3000E03003F004037B607B68012208213B481D
:100C400001F03AFA01224FF48051394801F034FAA8
:100C500001224FF40071374801F02EFA00224FF4C0
:100C60008061324801F028FA01220121324801F066
:100C700023FA002208212E4801F01EFA4FF4816366
:100C80007B610123BB610023FB6100233B6207F111
:100C900014031946254800F033FF41F208037B6135
:100CA0000123BB610023FB6100233B6207F11403B6
:100CB00019461F4800F024FF4FF400737B610123A5
:100CC000BB610023FB6100233B6207F1140319465B
:100CD000184800F015FF4FF480737B614FF4441304
:100CE000BB610023FB6107F1140319460F4800F0B4
:100CF00007FF01237B610123BB610023FB6100230C
:100D00003B6207F1140319460B4800F0F9FE00227C
:100D10000021172000F047FE172000F05EFE00BF04
:100D20002837BD4680BD00BF00440258000002586D
:100D30000004025800080258000C025880B500AFA9
:100D40000821024801F0D1F900BF80BD000402581B
:100D500080B584B000AF3B4600221A605A609A60AA
:100D6000DA6000F055FE01233B7000237B70002306
:100D70007B601F233B7287237B720023BB7200239F
:100D8000FB7201233B7301237B730023BB7300239E
:100D9000FB733B46184600F073FE042000F050FE43
:100DA00000BF1037BD4680BD80B582B000AF72B6BF
:100DB00000BF0821064801F098F900237B6002E09B
:100DC0007B6801337B607B68024A9342F8D9F0E785
:100DD00000040258FF69180080B483B000AF0A4BCA
:100DE000D3F8F430084A43F00203C2F8F430064B5B
:100DF000D3F8F43003F002037B607B6800BF0C374C
:100E0000BD465DF8047B70470044025880B5BAB017
:100E100000AF786007F1D40300221A605A609A602C
:100E2000DA601A6107F11003C022002118460DF0A4
:100E300087FF7B681B68274A934246D14FF0100218
:100E40004FF00003C7E904230023C7F8A83007F1D7
:100E50001003184602F0D2FA0346002B01D0FFF728
:100E6000A3FF1D4BD3F8E0301B4A43F00803C2F840
:100E7000E030194BD3F8E03003F00803FB60FB6867
:100E80004FF44053C7F8D4301223C7F8D8300023AA
:100E9000C7F8DC300023C7F8E0300423C7F8E4309B
:100EA00007F1D40319460D4800F02AFE0A4BD3F887
:100EB000F430094A43F08003C2F8F430064BD3F80B
:100EC000F43003F08003BB60BB6800BFE837BD4669
:100ED00080BD00BF001C005800440258000C02589E
:100EE00080B5BEB000AF786007F1E40300221A605D
:100EF0005A609A60DA601A6107F12003C02200216B
:100F000018460DF01DFF7B681B688A4A93425CD12E
:100F10004FF480524FF00003C7E908234FF4804399
:100F2000C7F8803007F12003184602F067FA03463D
:100F3000002B01D0FFF738FF7F4BD3F8F0307E4A0B
:100F400043F48053C2F8F0307B4BD3F8F03003F415
:100F50008053FB61FB69784BD3F8E030764A43F06D
:100F60000103C2F8E030744BD3F8E03003F0010322
:100F7000BB61BB692023C7F8E4300223C7F8E8301F
:100F80000023C7F8EC300023C7F8F0300523C7F87A
:100F9000F43007F1E4031946684800F0B1FDC023BE
:100FA000C7F8E4300223C7F8E8300123C7F8EC3073
:100FB0000023C7F8F0300523C7F8F43007F1E40345
:100FC00019465E4800F09CFDB0E07B681B685C4AF7
:100FD00093425ED14FF480524FF00003C7E90823DB
:100FE0004FF48043C7F8803007F12003184602F021
:100FF00005FA0346002B01D0FFF7D6FE4E4BD3F87F
:10100000E8304D4A43F48043C2F8E8304A4BD3F805
:10101000E83003F480437B617B69474BD3F8E030D1
:10102000454A43F00203C2F8E030434BD3F8E030C6
:1010300003F002033B613B694FF40053C7F8E4300F
:101040000223C7F8E8300023C7F8EC300023C7F8C4
:10105000F0300523C7F8F43007F1E40319463948A6
:1010600000F04EFD4FF44043C7F8E4300223C7F8C8
:10107000E8300123C7F8EC300023C7F8F03005232F
:10108000C7F8F43007F1E40319462E4800F038FDA4
:101090004CE07B681B682C4A934247D14FF4805246
:1010A0004FF00003C7E908234FF48043C7F88030AE
:1010B00007F12003184602F0A1F90346002B01D0E6
:1010C000FFF772FE1C4BD3F8E8301B4A43F4004391
:1010D000C2F8E830184BD3F8E83003F40043FB6063
:1010E000FB68154BD3F8E030134A43F00403C2F811
:1010F000E030114BD3F8E03003F00403BB60BB6871
:101100004FF4E053C7F8E4300223C7F8E830002377
:10111000C7F8EC300023C7F8F0300623C7F8F430E6
:1011200007F1E4031946094800F0EAFC00BFF8376C
:10113000BD4680BD00300140004402580000025806
:101140000038004000040258003C004000080258EB
:1011500080B582B000AF78607B681B681C4A934200
:101160000CD11C4BD3F8F0301A4A23F48053C2F848
:10117000F030E021184800F07DFE24E07B681B6819
:10118000164A93420DD1134BD3F8E830114A23F499
:101190008043C2F8E8304FF46041114800F06AFE25
:1011A00011E07B681B680F4A93420CD1094BD3F8BE
:1011B000E830084A23F40043C2F8E8304FF4E05125
:1011C000094800F057FE00BF0837BD4680BD00BF8C
:1011D000003001400044025800000258003800402E
:1011E00000040258003C00400008025880B5BAB024
:1011F00000AF786007F1D40300221A605A609A6049
:10120000DA601A6107F11003C022002118460DF0C0
:1012100097FD7B681B68274A934246D14FF0020234
:101220004FF00003C7E904230023C7F8883007F113
:101230001003184602F0E2F80346002B01D0FFF736
:10124000B3FD1D4BD3F8E8301B4A43F48023C2F8AA
:10125000E830194BD3F8E83003F48023FB60FB68D7
:10126000154BD3F8E030144A43F00203C2F8E030E3
:10127000114BD3F8E03003F00203BB60BB684FF4BE
:101280004063C7F8D4300223C7F8D8300023C7F82A
:10129000DC300023C7F8E0300723C7F8E43007F15B
:1012A000D4031946054800F02BFC00BFE837BD46C3
:1012B00080BD00BF004800400044025800040258AE
:1012C00080B400AF00BFFDE780B400AF00BFFDE712
:1012D00080B400AF00BFFDE780B400AF00BFFDE702
:1012E00080B400AF00BFFDE780B400AF00BFBD46D3
:1012F0005DF8047B704780B400AF00BFBD465DF869
:10130000047B704780B400AF00BFBD465DF8047B2E
:10131000704780B500AF00F01BFA00BF80BD80B5FC
:1013200000AF4FF4807000F0FAFE00BF80BD80B4C3
:1013300000AF01231846BD465DF8047B704780B5B9
:1013400082B000AF786039600DF05EFD0346162272
:101350001A604FF0FF3318460837BD4680BD80B590
:1013600082B000AF78604FF0FF317868FFF7E7FF99
:1013700000BFFDE780B586B000AFF860B9607A6065
:1013800000237B610AE0AFF300800146BB685A1C72
:10139000BA60CAB21A707B6901337B617A697B6873
:1013A0009A42F0DB7B6818461837BD4680BD80B591
:1013B00086B000AFF860B9607A6000237B6109E015
:1013C000BB685A1CBA601B781846AFF300807B6973
:1013D00001337B617A697B689A42F1DB7B6818464E
:1013E0001837BD4680BD80B483B000AF78604FF041
:1013F000FF3318460C37BD465DF8047B704780B458
:1014000083B000AF786039603B684FF400525A6097
:10141000002318460C37BD465DF8047B704780B446
:1014200083B000AF7860012318460C37BD465DF8E5
:10143000047B704780B485B000AFF860B9607A6013
:10144000002318461437BD465DF8047B7047000042
:1014500080B586B000AF7860144A154BD31A7B6113
:101460007B693B61134B1B68002B02D1114B124A65
:101470001A60104B1A687B6813443A699A4207D283
:101480000DF0C2FC03460C221A604FF0FF3309E056
:10149000084B1B68FB60074B1A687B681344054ABE
:1014A0001360FB6818461837BD4680BD000008244D
:1014B0000008000090050024A80D002480B400AFAF
:1014C000434BD3F88830424A43F47003C2F8883063
:1014D000404B1B6803F00F03062B07D83D4B1B68DE
:1014E00023F00F033B4A43F0070313603A4B1B689A
:1014F000394A43F001031360374B00221A61364B1F
:101500001A683549354B13400B60324B1B6803F0AA
:101510000803002B07D02F4B1B6823F00F032D4A25
:1015200043F0070313602C4B00229A612A4B0022E0
:10153000DA61294B00221A62274B294A9A62264B0C
:10154000284ADA62244B284A1A63234B00225A6342
:10155000214B254A9A63204B0022DA631E4B224A14
:101560001A641D4B00225A641B4B1B681A4A23F451
:1015700080231360184B00221A661C4B1A681C4B00
:101580001340B3F1005F02D21A4B01221A60124BD2
:10159000D3F8D43003F48053002B13D10E4BD3F87F
:1015A000D4300D4A43F48053C2F8D430124B43F286
:1015B000D2021A60084BD3F8D430074A23F4805380
:1015C000C2F8D43000BFBD465DF8047B704700BF51
:1015D00000ED00E000200052004402587FEDF6EAE2
:1015E000000202020000FF01800201010010005C05
:1015F0000000FFFF0881005100400052044BDA68F0
:1016000042F00202DA605A689204FCD5704700BFCB
:1016100000480258DFF838D0FFF7F0FFFFF74EFF21
:101620000C480D490D4A002302E0D458C45004333D
:10163000C4188C42F9D30A4A0A4C002301E0136013
:101640000432A242FBD30DF0E5FBFFF75DF8FEE7A5
:101650000000082400000024F4010024281F0108D1
:10166000F4010024A40D0024FEE7000080B582B040
:1016700000AF032000F08CF901F0EAFC0246154BA4
:101680009B691B0A03F00F031349CB5C03F01F0394
:1016900022FA03F37B600F4B9B6903F00F030E4AA2
:1016A000D35C03F01F037A6822FA03F30B4A13603A
:1016B0000B4A7B6813600F2000F014F80346002BE0
:1016C00001D0012302E0FFF787FB0023184608370B
:1016D000BD4680BD00440258801201080400002469
:1016E0000000002480B582B000AF7860154B1B78F5
:1016F000002B01D1012321E0134B1A68114B1B78F9
:1017000019464FF47A73B3FBF1F3B2FBF3F31846C7
:1017100000F071F90346002B01D001230EE07B6835
:101720000F2B0AD8002279684FF0FF3000F03BF908
:10173000064A7B681360002300E00123184608373F
:10174000BD4680BD0C0000240000002408000024D9
:1017500080B400AF064B1B781A46064B1B68134437
:10176000044A136000BFBD465DF8047B704700BFAC
:101770000C0000249405002480B400AF034B1B68C8
:101780001846BD465DF8047B704700BF94050024F1
:1017900080B584B000AF7860FFF7EEFFB8607B687B
:1017A000FB60FB68B3F1FF3F05D00A4B1B781A467C
:1017B000FB681344FB6000BFFFF7DEFF0246BB6817
:1017C000D31AFA689A42F7D800BF00BF1037BD4657
:1017D00080BD00BF0C00002480B400AF034B1B6829
:1017E0001B0C1846BD465DF8047B70470010005C7A
:1017F00080B485B000AF78607B6803F00703FB60BE
:101800000B4BDB68BB60BA684FF6FF031340BB604D
:10181000FB681A02BB681A43064B1343BB60044AB9
:10182000BB68D36000BF1437BD465DF8047B7047CA
:1018300000ED00E00000FA0580B400AF044BDB6867
:101840001B0A03F007031846BD465DF8047B70478A
:1018500000ED00E080B483B000AF0346FB80B7F931
:101860000630002B0BDBFB8803F01F020749B7F99A
:1018700006305B09012000FA02F241F8232000BF84
:101880000C37BD465DF8047B704700BF00E100E007
:1018900080B483B000AF03463960FB80B7F90630EF
:1018A000002B0ADB3B68DAB20C49B7F906301201AB
:1018B000D2B20B4483F800230AE03B68DAB208494D
:1018C000FB8803F00F03043B1201D2B20B441A76DB
:1018D00000BF0C37BD465DF8047B704700E100E0B7
:1018E00000ED00E080B489B000AFF860B9607A60C4
:1018F000FB6803F00703FB61FB69C3F10703042BDB
:1019000028BF0423BB61FB690433062B02D9FB69A2
:10191000033B00E000237B614FF0FF32BB6902FA1A
:1019200003F3DA43BB681A407B699A404FF0FF31FA
:101930007B6901FA03F3D9437B680B4013431846D4
:101940002437BD465DF8047B7047000080B582B047
:1019500000AF78607B68013BB3F1807F01D3012346
:101960000FE00A4A7B68013B53600F214FF0FF30C4
:10197000FFF78EFF054B00229A60044B07221A6086
:10198000002318460837BD4680BD00BF10E000E0C8
:1019900080B582B000AF78607868FFF729FF00BF9C
:1019A0000837BD4680BD80B586B000AF0346B9603C
:1019B0007A60FB81FFF740FF78617A68B9687869DF
:1019C000FFF790FF0246B7F90E3011461846FFF7B1
:1019D0005FFF00BF1837BD4680BD80B582B000AF45
:1019E0000346FB80B7F906301846FFF733FF00BF08
:1019F0000837BD4680BD80B582B000AF786078689A
:101A0000FFF7A4FF034618460837BD4680BD000017
:101A100080B400AFBFF35F8F00BF074B5B6A064A1D
:101A200023F480335362054B00225A6000BFBD4649
:101A30005DF8047B704700BF00ED00E090ED00E032
:101A400080B483B000AF78600B4A7B6843F0010339
:101A500053600A4B5B6A094A43F480335362BFF315
:101A60004F8F00BFBFF36F8F00BF00BF0C37BD4665
:101A70005DF8047B704700BF90ED00E000ED00E0F2
:101A800080B483B000AF78607B685A781B4B9A6053
:101A90001A4B1B69194A23F001031361174A7B682B
:101AA0005B68D3607B681B7B1A077B68DB7A1B064D
:101AB0001A437B689B7ADB041A437B685B7B9B043D
:101AC0001A437B689B7B5B041A437B68DB7B1B04AC
:101AD0001A437B685B7A1B021A437B681B7A5B00A4
:101AE00013437A6812781146044A0B43136100BF0E
:101AF0000C37BD465DF8047B704700BF90ED00E0F9
:101B000080B489B000AF786039600023FB618E4BF0
:101B10007B619EE13B681A680121FB6901FA03F3CE
:101B200013403B613B69002B00F090813B685B6890
:101B300003F00303012B05D03B685B6803F003034C
:101B4000022B30D17B689B68BB61FB695B00032281
:101B500002FA03F3DB43BA691340BB613B68DA68FE
:101B6000FB695B0002FA03F3BA691343BB617B684C
:101B7000BA699A607B685B68BB610122FB6902FA03
:101B800003F3DB43BA691340BB613B685B681B0925
:101B900003F00102FB6902FA03F3BA691343BB6164
:101BA0007B68BA695A603B685B6803F00303032BE8
:101BB00009D13B685B6803F00303032B1BD13B682F
:101BC0009B68012B17D07B68DB68BB61FB695B00FE
:101BD000032202FA03F3DB43BA691340BB613B689B
:101BE0009A68FB695B0002FA03F3BA691343BB61AD
:101BF0007B68BA69DA603B685B6803F00303022B19
:101C000023D1FB69DA087B68083253F82230BB61C4
:101C1000FB6903F007039B000F2202FA03F3DB4387
:101C2000BA691340BB613B681A69FB6903F007039B
:101C30009B0002FA03F3BA691343BB61FB69DA083C
:101C40007B680832B96943F822107B681B68BB6166
:101C5000FB695B00032202FA03F3DB43BA6913401A
:101C6000BB613B685B6803F00302FB695B0002FA3F
:101C700003F3BA691343BB617B68BA691A603B68B6
:101C80005B6803F44033002B00F0E0802F4BD3F867
:101C9000F4302E4A43F00203C2F8F4302B4BD3F851
:101CA000F43003F00203FB60FB68294AFB699B08E0
:101CB000023352F82330BB61FB6903F003039B003E
:101CC0000F2202FA03F3DB43BA691340BB617B685E
:101CD000204A934252D07B681F4A934231D07B689E
:101CE0001E4A93422BD07B681D4A934225D07B68C5
:101CF0001C4A93421FD07B681B4A934219D07B68D1
:101D00001A4A934213D07B68194A93420DD07B68DC
:101D1000184A934207D07B68174A934201D109239E
:101D20002DE00A232BE0082329E0072327E00623E0
:101D300025E0052323E0042321E003231FE0022301
:101D40001DE001231BE000BF800000580044025842
:101D5000000400580000025800040258000802580D
:101D6000000C0258001002580014025800180258C3
:101D7000001C025800200258002402580023FA696F
:101D800002F0030292009340BA691343BB613849E1
:101D9000FB699B080233BA6941F823204FF0B04336
:101DA0001B68BB613B69DB43BA691340BB613B689D
:101DB0005B6803F48013002B03D0BA693B691343BB
:101DC000BB614FF0B042BB6913604FF0B0435B683A
:101DD000BB613B69DB43BA691340BB613B685B682D
:101DE00003F40013002B03D0BA693B691343BB61B2
:101DF0004FF0B042BB6953607B695B68BB613B6974
:101E0000DB43BA691340BB613B685B6803F4003392
:101E1000002B03D0BA693B691343BB617B69BA6984
:101E20005A607B691B68BB613B69DB43BA6913403D
:101E3000BB613B685B6803F48033002B03D0BA6955
:101E40003B691343BB617B69BA691A60FB69013363
:101E5000FB613B681A68FB6922FA03F3002B7FF4ED
:101E600059AE00BF00BF2437BD465DF8047B704704
:101E70000004005880B487B000AF78603960002358
:101E80007B61754B3B61D9E001227B6902FA03F368
:101E90003A681340FB60FB68002B00F0CC806F4A6F
:101EA0007B699B08023352F82330BB607B6903F0E7
:101EB00003039B000F2202FA03F3BA681340BB60CE
:101EC0007B68674A934237D07B68664A934231D039
:101ED0007B68654A93422BD07B68644A934225D045
:101EE0007B68634A93421FD07B68624A934219D051
:101EF0007B68614A934213D07B68604A93420DD05D
:101F00007B685F4A934207D07B685E4A934201D167
:101F1000092312E00A2310E008230EE007230CE057
:101F200006230AE0052308E0042306E0032304E077
:101F3000022302E0012300E000237A6902F0030299
:101F400092009340BA689A4236D13B691A68FB689E
:101F5000DB431A403B691A603B695A68FB68DB4304
:101F60001A403B695A604FF0B0435A68FB68DB4344
:101F70004FF0B04113404B604FF0B0431A68FB681C
:101F8000DB434FF0B04113400B607B6903F0030368
:101F90009B000F2202FA03F3BB60304A7B699B0867
:101FA000023352F82310BB68DA432C487B699B0844
:101FB0000A40023340F823207B681A687B695B0083
:101FC000032101FA03F31A437B681A607B69DA087C
:101FD0007B68083253F822107B6903F007039B00EB
:101FE0000F2202FA03F3DB437A69D20819407B68B7
:101FF000083243F822107B68DA687B695B000321B2
:1020000001FA03F3DB431A407B68DA607B685A68A5
:1020100001217B6901FA03F3DB431A407B685A60B4
:102020007B689A687B695B00032101FA03F3DB4359
:102030001A407B689A607B6901337B613A687B69EF
:1020400022FA03F3002B7FF41FAF00BF00BF1C3741
:10205000BD465DF8047B70478000005800040058BE
:10206000000002580004025800080258000C0258F0
:10207000001002580014025800180258001C0258A0
:10208000002002580024025880B485B000AF786068
:102090000B467B807B681A697B881340002B02D03B
:1020A0000123FB7301E00023FB73FB7B184614370D
:1020B000BD465DF8047B704780B483B000AF7860A4
:1020C0000B467B8013467B707B78002B03D07A888D
:1020D0007B689A6103E07B881A047B689A6100BF81
:1020E0000C37BD465DF8047B704780B485B000AF07
:1020F00078600B467B807B685B69FB607A88FB6855
:1021000013401A04FB68D9437B880B401A437B6851
:102110009A6100BF1437BD465DF8047B704780B5F7
:1021200082B000AF0346FB804FF0B043D3F8882065
:10213000FB881340002B08D04FF0B042FB88C2F858
:102140008830FB8818460BF045FA00BF0837BD46BB
:1021500080BD000080B582B000AF78607B68002B46
:1021600001D101238BE07B6893F84130DBB2002B77
:1021700006D17B68002283F840207868FEF746FE8F
:102180007B68242283F841207B681B681A687B687F
:102190001B6822F001021A607B685A687B681B6822
:1021A00022F070621A617B681B689A687B681B6802
:1021B00022F400429A607B68DB68012B07D17B68C0
:1021C0009A687B681B6842F400429A6006E07B686C
:1021D0009A687B681B6842F404429A607B68DB68FB
:1021E000022B08D17B681B685A687B681B6842F425
:1021F00000625A6007E07B681B685A687B681B684E
:1022000022F400625A607B681B6859687B681A6810
:102210001D4B0B4353607B681B68DA687B681B6847
:1022200022F40042DA607B681A697B685B6942EAE3
:1022300003017B689B691A027B681B680A43DA60AA
:102240007B68D9697B681A6A7B681B680A431A60D5
:102250007B681B681A687B681B6842F001021A6081
:102260007B6800225A647B68202283F841207B68C7
:1022700000221A637B68002283F84220002318465C
:102280000837BD4680BD00BF0080000280B483B027
:1022900000AF786039607B6893F84130DBB2202B67
:1022A00038D17B6893F84030012B01D1022332E012
:1022B0007B68012283F840207B68242283F8412038
:1022C0007B681B681A687B681B6822F001021A6031
:1022D0007B681B681A687B681B6822F480521A604E
:1022E0007B681B6819687B681B683A680A431A6038
:1022F0007B681B681A687B681B6842F001021A60E1
:102300007B68202283F841207B68002283F84020EC
:10231000002300E0022318460C37BD465DF8047B1D
:10232000704780B485B000AF786039607B6893F8FF
:102330004130DBB2202B39D17B6893F84030012B40
:1023400001D1022333E07B68012283F840207B68BF
:10235000242283F841207B681B681A687B681B680D
:1023600022F001021A607B681B681B68FB60FB6837
:1023700023F47063FB603B681B02FA681343FB6045
:102380007B681B68FA681A607B681B681A687B6840
:102390001B6842F001021A607B68202283F841200A
:1023A0007B68002283F84020002300E002231846C7
:1023B0001437BD465DF8047B7047000080B584B0DB
:1023C00000AF7860194BDB6803F00403042B0AD0DC
:1023D000164BDB6803F007037A689A4201D00123A9
:1023E0001FE000231DE0114BDB6823F007020F49BB
:1023F0007B681343CB60FFF7BFF9F86009E0FFF794
:10240000BBF90246FB68D31AB3F57A7F01D90123E1
:1024100007E0064B5B6803F40053B3F5005FEED1B1
:10242000002318461037BD4680BD00BF0048025843
:1024300080B58CB000AF78607B68002B02D101239F
:1024400000F048BC7B681B6803F00103002B00F020
:102450008880994B1B6903F03803FB62964B9B6A9B
:10246000BB62FB6A102B07D0FB6A182B11D1BB6A29
:1024700003F00303022B0CD18F4B1B6803F40033D2
:10248000002B6DD07B685B68002B69D1012300F0C5
:1024900021BC7B685B68B3F5803F06D1864B1B6827
:1024A000854A43F4803313602EE07B685B68002B21
:1024B0000CD1814B1B68804A23F4803313607E4B20
:1024C0001B687D4A23F4802313601DE07B685B68F2
:1024D000B3F5A02F0CD1784B1B68774A43F48023C7
:1024E0001360754B1B68744A43F4803313600BE030
:1024F000714B1B68704A23F4803313606E4B1B686A
:102500006D4A23F4802313607B685B68002B13D033
:10251000FFF732F9786208E0FFF72EF902467B6A8E
:10252000D31A642B01D90323D4E3634B1B6803F450
:102530000033002BF0D014E0FFF71EF9786208E0BA
:10254000FFF71AF902467B6AD31A642B01D90323D9
:10255000C0E3594B1B6803F40033002BF0D100E0BB
:1025600000BF7B681B6803F00203002B00F0CA80E9
:10257000514B1B6903F038033B624F4B9B6AFB6175
:102580003B6A002B07D03B6A182B56D1FB6903F03E
:102590000303002B51D1484B1B6803F00403002BAD
:1025A00005D07B68DB68002B01D1012392E3424B0D
:1025B0001B6823F019027B68DB683F4913430B60FB
:1025C000FFF7DAF8786208E0FFF7D6F802467B6A90
:1025D000D31A022B01D903237CE3374B1B6803F08A
:1025E0000403002BF0D0FFF7F7F8034641F2030293
:1025F000934217D87B681B69402B08D12E4B5B6830
:1026000023F47C332C4A43F4003353607AE02A4BA2
:102610005B6823F47C327B681B691B0326491343E8
:102620004B606FE0244B5B6823F0FE427B681B69C4
:102630001B06214913434B6064E07B68DB68002B79
:1026400047D01D4B1B6823F019027B68DB681A49D1
:1026500013430B60FFF790F8786208E0FFF78CF8FF
:1026600002467B6AD31A022B01D9032332E3124BB1
:102670001B6803F00403002BF0D0FFF7ADF803460E
:1026800041F20302934219D87B681B69402B08D1A1
:10269000094B5B6823F47C33074A43F400335360EF
:1026A00030E0054B5B6823F47C327B681B691B03BD
:1026B000014913434B6025E0004402589A4B5B6884
:1026C00023F0FE427B681B691B06974913434B604E
:1026D00018E0954B1B68944A23F001031360FFF741
:1026E0004BF8786208E0FFF747F802467B6AD31A96
:1026F000022B01D90323EDE28B4B1B6803F004038B
:10270000002BF0D17B681B6803F01003002B00F056
:10271000A980854B1B6903F03803BB61824B9B6A20
:102720007B61BB69082B07D0BB69182B3AD17B6949
:1027300003F00303012B35D17B4B1B6803F480733B
:10274000002B05D07B68DB69802B01D00123C1E21F
:10275000FFF742F8034641F20302934217D87B6821
:102760001B6A202B08D1704B5B6823F0F8436E4A3C
:1027700043F08043536075E06B4B5B6823F0F84295
:102780007B681B6A9B06684913434B606AE0664B93
:10279000DB6823F07C527B681B6A1B06624913438B
:1027A000CB605FE07B68DB69002B42D05E4B1B682F
:1027B0005D4A43F080031360FEF7DEFF786208E0B5
:1027C000FEF7DAFF02467B6AD31A022B01D90323F4
:1027D00080E2554B1B6803F48073002BF0D0FEF7AA
:1027E000FBFF034641F20302934217D87B681B6A42
:1027F000202B08D14C4B5B6823F0F8434A4A43F046
:10280000804353602EE0484B5B6823F0F8427B68BE
:102810001B6A9B06444913434B6023E0424BDB6831
:1028200023F07C527B681B6A1B063F491343CB6035
:1028300018E03D4B1B683C4A23F080031360FEF711
:102840009BFF786208E0FEF797FF02467B6AD31A87
:10285000022B01D903233DE2334B1B6803F4807341
:10286000002BF0D17B681B6803F00803002B36D0E7
:102870007B685B69002B19D02B4B5B6F2A4A43F0B6
:1028800001035367FEF778FF786208E0FEF774FFF4
:1028900002467B6AD31A022B01D903231AE2224B88
:1028A0005B6F03F00203002BF0D018E01E4B5B6F50
:1028B0001D4A23F001035367FEF75EFF786208E0CC
:1028C000FEF75AFF02467B6AD31A022B01D9032373
:1028D00000E2154B5B6F03F00203002BF0D17B6825
:1028E0001B6803F02003002B39D07B689B69002B09
:1028F0001CD00D4B1B680C4A43F480531360FEF749
:102900003BFF786208E0FEF737FF02467B6AD31A86
:10291000022B01D90323DDE1034B1B6803F40053B1
:10292000002BF0D01BE000BF004402589B4B1B68FB
:102930009A4A23F480531360FEF71EFF786208E082
:10294000FEF71AFF02467B6AD31A022B01D9032332
:10295000C0E1924B1B6803F40053002BF0D17B685D
:102960001B6803F00403002B00F081808C4B1B6874
:102970008B4A43F480731360FEF7FEFE786208E032
:10298000FEF7FAFE02467B6AD31A642B01D90323B1
:10299000A0E1834B1B6803F48073002BF0D07B68AD
:1029A0009B68012B06D17D4B1B6F7C4A43F00103D2
:1029B00013672DE07B689B68002B0CD1774B1B6F56
:1029C000764A23F001031367744B1B6F734A23F09D
:1029D000040313671CE07B689B68052B0CD16F4BCD
:1029E0001B6F6E4A43F0040313676C4B1B6F6B4AFB
:1029F00043F0010313670BE0684B1B6F674A23F03A
:102A000001031367654B1B6F644A23F004031367CC
:102A10007B689B68002B15D0FEF7AEFE78620AE05B
:102A2000FEF7AAFE02467B6AD31A41F2883293422D
:102A300001D903234EE1594B1B6F03F00203002B16
:102A4000EED014E0FEF798FE78620AE0FEF794FEFE
:102A500002467B6AD31A41F28832934201D903239A
:102A600038E14E4B1B6F03F00203002BEED17B6865
:102A70005B6A002B00F02D81484B1B6903F0380383
:102A8000182B00F0BD807B685B6A022B40F09E80B3
:102A9000424B1B68414A23F080731360FEF76CFEC3
:102AA000786208E0FEF768FE02467B6AD31A022BC2
:102AB00001D903230EE1394B1B6803F00073002B8F
:102AC000F0D1364B9A6A374B13407A68916A7A682C
:102AD000D26A12010A43314913438B627B681B6B34
:102AE000013BC3F308027B685B6B013B5B029BB25B
:102AF0001A437B689B6B013B1B0403F4FE031A43E0
:102B00007B68DB6B013B1B0603F0FE432349134349
:102B10000B63224BDB6A214A23F00103D3621F4B74
:102B20005A6B214B13407A68926CD2001B491343B5
:102B30004B631A4BDB6A23F00C027B681B6C174952
:102B40001343CB62154BDB6A23F002027B685B6C9C
:102B500012491343CB62114BDB6A104A43F48033B2
:102B6000D3620E4BDB6A0D4A43F40033D3620B4B46
:102B7000DB6A0A4A43F48023D362084BDB6A074AC4
:102B800043F00103D362054B1B68044A43F0807392
:102B90001360FEF7F1FD786211E000BF00440258B7
:102BA000004802580CFCFFFF0700FFFFFEF7E4FDA2
:102BB00002467B6AD31A022B01D903238AE0474BD2
:102BC0001B6803F00073002BF0D082E0434B1B68BE
:102BD000424A23F080731360FEF7CEFD786208E06E
:102BE000FEF7CAFD02467B6AD31A022B01D90323E2
:102BF00070E03A4B1B6803F00073002BF0D168E0E3
:102C0000364B9B6A3B61354B1B6BFB607B685B6A99
:102C1000012B31D03B6903F003027B689B6A9A4227
:102C20002AD13B691B0903F03F027B68DB6A9A42A9
:102C300022D1FB68C3F308027B681B6B013B9A42FD
:102C40001AD1FB685B0A03F07F027B685B6B013B78
:102C50009A4211D1FB681B0C03F07F027B689B6BCF
:102C6000013B9A4208D1FB681B0E03F07F027B6890
:102C7000DB6B013B9A4201D001232BE0174B5B6BCE
:102C8000DB08C3F30C033B617B689B6C3A699A4297
:102C90001FD0124BDB6A114A23F00103D362FEF707
:102CA0006BFD786200BFFEF767FD02467B6A9342C8
:102CB000F9D00A4B5A6B0A4B13407A68926CD200D7
:102CC000064913434B63054BDB6A044A43F0010397
:102CD000D362002318463037BD4680BD00440258F9
:102CE0000700FFFF80B586B000AF786039607B6871
:102CF000002B01D101239CE18A4B1B6803F00F03D9
:102D00003A689A4210D9874B1B6823F00F02854915
:102D10003B6813430B60834B1B6803F00F033A6857
:102D20009A4201D0012384E17B681B6803F004030D
:102D3000002B10D07B681A697B4B9B6903F07003F2
:102D40009A4208D9784B9B6923F070027B681B6913
:102D5000754913438B617B681B6803F00803002BE4
:102D600010D07B685A69704BDB6903F070039A429C
:102D700008D96D4BDB6923F070027B685B696A4997
:102D80001343CB617B681B6803F01003002B10D04A
:102D90007B689A69644BDB6903F4E0639A4208D963
:102DA000614BDB6923F4E0627B689B695E491343F6
:102DB000CB617B681B6803F02003002B10D07B687D
:102DC000DA69594B1B6A03F070039A4208D9564BD3
:102DD0001B6A23F070027B68DB69534913430B6263
:102DE0007B681B6803F00203002B10D07B68DA6855
:102DF0004D4B9B6903F00F039A4208D94A4B9B69DC
:102E000023F00F027B68DB68474913438B617B68C3
:102E10001B6803F00103002B55D0434B9B6923F43F
:102E200070627B689B68404913438B617B685B6879
:102E3000022B07D13C4B1B6803F40033002B21D13C
:102E40000123F6E07B685B68032B07D1364B1B68D8
:102E500003F00073002B15D10123EAE07B685B6867
:102E6000012B07D1304B1B6803F48073002B09D171
:102E70000123DEE02C4B1B6803F00403002B01D17F
:102E80000123D6E0284B1B6923F007027B685B68AF
:102E9000254913430B61FEF76FFC78610AE0FEF7EA
:102EA0006BFC02467B69D31A41F28832934201D906
:102EB0000323BEE01C4B1B6903F038027B685B6890
:102EC000DB009A42EBD17B681B6803F00203002B06
:102ED00010D07B68DA68144B9B6903F00F039A42A9
:102EE00008D2114B9B6923F00F027B68DB680E4907
:102EF00013438B610B4B1B6803F00F033A689A4234
:102F000014D2084B1B6823F00F0206493B68134399
:102F10000B60044B1B6803F00F033A689A4205D01C
:102F2000012386E000200052004402587B681B68A1
:102F300003F00403002B10D07B681A693F4B9B6998
:102F400003F070039A4208D23C4B9B6923F0700255
:102F50007B681B69394913438B617B681B6803F0ED
:102F60000803002B10D07B685A69344BDB6903F0EF
:102F700070039A4208D2314BDB6923F070027B6800
:102F80005B692E491343CB617B681B6803F0100318
:102F9000002B10D07B689A69284BDB6903F4E0634F
:102FA0009A4208D2254BDB6923F4E0627B689B6977
:102FB00022491343CB617B681B6803F02003002B7D
:102FC00010D07B68DA691D4B1B6A03F070039A42CC
:102FD00008D21A4B1B6A23F070027B68DB69174921
:102FE00013430B6200F034F80246144B9B691B0A32
:102FF00003F00F031249CB5C03F01F0322FA03F323
:103000003B610E4B9B6903F00F030D4AD35C03F049
:103010001F033A6922FA03F30A4A13600A4A3B691A
:1030200013600A4B1B681846FEF75CFB0346FB73F4
:10303000FB7B18461837BD4680BD00BF00440258D0
:10304000801201080400002400000024080000246D
:1030500080B489B000AFB34B1B6903F03803182B61
:1030600000F2558101A252F823F000BFD1300008D0
:103070000F3300080F3300080F3300080F33000828
:103080000F3300080F3300080F330008F730000833
:103090000F3300080F3300080F3300080F33000808
:1030A0000F3300080F3300080F330008FD3000080D
:1030B0000F3300080F3300080F3300080F330008E8
:1030C0000F3300080F3300080F33000803310008E6
:1030D000944B1B6803F02003002B09D0914B1B6815
:1030E000DB0803F00303904A22FA03F3BB6111E10A
:1030F0008D4BBB610EE18D4BBB610BE18C4BBB611A
:1031000008E1884B9B6A03F003037B61854B9B6A54
:103110001B0903F03F033B61824BDB6A03F00103B1
:10312000FB60804B5B6BDB08C3F30C03FA6802FBAC
:1031300003F307EE903AF8EE677AC7ED027A3B693F
:10314000002B00F0E1807B69022B00F083807B691B
:10315000022B00F2A1807B69002B03D07B69012B3D
:1031600056D099E06F4B1B6803F02003002B2DD045
:103170006C4B1B68DB0803F003036B4A22FA03F372
:103180007B607B6807EE903AF8EE676A3B6907EE72
:10319000903AF8EE677A86EEA77A624B1B6BC3F320
:1031A000080307EE903AF8EE676A97ED026ADFEDE2
:1031B000615AC6EE257A76EEA77AF7EE006A77EEC8
:1031C000A67A67EE277AC7ED077A87E03B6907EEB4
:1031D000903AF8EE677ADFED586A86EEA77A514B9F
:1031E0001B6BC3F3080307EE903AF8EE676A97ED9E
:1031F000026ADFED505AC6EE257A76EEA77AF7EE30
:10320000006A77EEA67A67EE277AC7ED077A65E05F
:103210003B6907EE903AF8EE677ADFED486A86EE92
:10322000A77A404B1B6BC3F3080307EE903AF8EE06
:10323000676A97ED026ADFED3F5AC6EE257A76EEB1
:10324000A77AF7EE006A77EEA67A67EE277AC7EDDF
:10325000077A43E03B6907EE903AF8EE677ADFEDD4
:10326000386A86EEA77A2F4B1B6BC3F3080307EE71
:10327000903AF8EE676A97ED026ADFED2E5AC6EED5
:10328000257A76EEA77AF7EE006A77EEA67A67EEF1
:10329000277AC7ED077A21E03B6907EE903AF8EE0E
:1032A000677ADFED266A86EEA77A1E4B1B6BC3F3A7
:1032B000080307EE903AF8EE676A97ED026ADFEDD1
:1032C0001D5AC6EE257A76EEA77AF7EE006A77EEFB
:1032D000A67A67EE277AC7ED077A00BF114B1B6B02
:1032E0005B0A03F07F0301333B603B6807EE903AD3
:1032F000B8EE677AD7ED076AC6EE877AFCEEE77A12
:1033000017EE903ABB6105E00023BB6102E0074B7A
:10331000BB6100BFBB6918462437BD465DF8047B1E
:10332000704700BF004402580090D00300093D00E0
:1033300040787D01000000460024744C0024744A4B
:1033400020BCBE4B80B582B000AFFFF781FE0246C5
:10335000104B9B691B0A03F00F030F49CB5C03F072
:103360001F0322FA03F37B600A4B9B6903F00F03F0
:10337000094AD35C03F01F037A6822FA03F3074A71
:103380001360074A7B681360044B1B6818460837B4
:10339000BD4680BD0044025880120108040000248C
:1033A0000000002480B500AFFFF7CCFF0246064BBB
:1033B000DB691B0903F007030449CB5C03F01F031F
:1033C00022FA03F3184680BD004402588012010817
:1033D00080B500AFFFF7B6FF0246064BDB691B0A5C
:1033E00003F007030449CB5C03F01F0322FA03F345
:1033F000184680BD00440258801201082DE9B04FE4
:10340000CAB000AFC7F81401002387F827310023A2
:1034100087F82631D7F81431D3E9002302F000648D
:10342000002554EA050349D0D7F814319B6EB3F553
:10343000401F2FD0B3F5401F28D8B3F5001F1AD076
:10344000B3F5001F22D8002B03D0B3F5801F07D09F
:103450001CE0B84BDB6AB74A43F40033D3621AE08E
:10346000D7F8143108330221184601F08FFC0346C7
:1034700087F827310FE0D7F8143128330221184696
:1034800001F036FD034687F8273104E0012387F871
:10349000273100E000BF97F82731002B0AD1A54B58
:1034A0001B6D23F44011D7F814319B6EA14A0B43D6
:1034B000136503E097F8273187F82631D7F81431E0
:1034C000D3E9002302F480784FF0000958EA090399
:1034D00047D0D7F814319B6D042B2AD801A252F89B
:1034E00023F000BFF9340008073500081D35000837
:1034F0003B3500083B3500088E4BDB6A8D4A43F4B0
:103500000033D3621AE0D7F814310833002118468B
:1035100001F03CFC034687F827310FE0D7F814315F
:1035200028330021184601F0E3FC034687F82731D1
:1035300004E0012387F8273100E000BF97F8273126
:10354000002B0AD17B4B1B6D23F00701D7F81431F8
:103550009B6D784A0B43136503E097F8273187F892
:103560002631D7F81431D3E9002302F4007A4FF062
:10357000000B5AEA0B034CD0D7F81431DB6DB3F5CE
:10358000807F30D0B3F5807F29D8C02B2DD0C02BC1
:1035900025D8802B18D0802B21D8002B02D0402B8F
:1035A00007D01CE0634BDB6A624A43F40033D3620A
:1035B0001CE0D7F8143108330021184601F0E6FB6F
:1035C000034687F8273111E0D7F81431283300215A
:1035D000184601F08DFC034687F8273106E00123E9
:1035E00087F8273102E000BF00E000BF97F82731DD
:1035F000002B0AD14F4B1B6D23F4E071D7F8143127
:10360000DB6D4C4A0B43136503E097F8273187F8CD
:103610002631D7F81431D3E9002302F48063C7F8C8
:1036200008310023C7F80C31D7E942120B46134387
:1036300053D0D7F81431D3F8A830B3F5000F35D0F4
:10364000B3F5000F2ED8B3F5C00F31D0B3F5C00FCE
:1036500028D8B3F5800F1AD0B3F5800F22D8002BED
:1036600003D0B3F5001F07D01CE0324BDB6A314AB0
:1036700043F40033D3621CE0D7F81431083300213F
:10368000184601F083FB034687F8273111E0D7F88D
:10369000143128330021184601F02AFC034687F82C
:1036A000273106E0012387F8273102E000BF00E060
:1036B00000BF97F82731002B0BD11E4B9B6D23F4D5
:1036C0006001D7F81431D3F8A8301A4A0B43936538
:1036D00003E097F8273187F82631D7F81431D3E97A
:1036E000002302F40063C7F800310023C7F8043157
:1036F000D7E940120B46134356D0D7F81431D3F80C
:10370000AC30B3F1806F38D0B3F1806F31D8B3F102
:10371000407F34D0B3F1407F2BD8B3F1007F1DD070
:10372000B3F1007F25D8002B06D0B3F1807F0AD0FB
:103730001FE000BF00440258A24BDB6AA14A43F4D9
:103740000033D3621CE0D7F8143108330021184647
:1037500001F01CFB034687F8273111E0D7F814313C
:1037600028330021184601F0C3FB034687F82731B0
:1037700006E0012387F8273102E000BF00E000BF28
:1037800097F82731002B0BD18E4B9B6D23F0E06116
:10379000D7F81431D3F8AC308A4A0B43936503E071
:1037A00097F8273187F82631D7F81431D3E9002369
:1037B00002F00073C7F8F8300023C7F8FC30D7E9EF
:1037C0003E120B4613433AD0D7F81431DB6C302B42
:1037D0001FD0302B19D8202B0CD0202B15D8002B24
:1037E00019D0102B11D1774BDB6A764A43F40033A2
:1037F000D36211E0D7F8143108330221184601F0E2
:10380000C5FA034687F8273106E0012387F82731F8
:1038100002E000BF00E000BF97F82731002B0AD17B
:10382000684BDB6C23F03001D7F81431DB6C654A50
:103830000B43D36403E097F8273187F82631D7F894
:103840001431D3E9002302F48053C7F8F030002389
:10385000C7F8F430D7E93C120B46134351D0D7F8E0
:1038600014311B6EB3F5804F35D0B3F5804F2ED891
:10387000B3F5405F31D0B3F5405F28D8B3F5005FB2
:103880001AD0B3F5005F22D8002B03D0B3F5805FC8
:1038900007D01CE04B4BDB6A4A4A43F40033D36247
:1038A0001CE0D7F8143108330021184601F06EFAF5
:1038B000034687F8273111E0D7F814312833002167
:1038C000184601F015FB034687F8273106E001236F
:1038D00087F8273102E000BF00E000BF97F82731EA
:1038E000002B0AD1374B1B6D23F4E041D7F814317C
:1038F0001B6E344A0B43136503E097F8273187F8B2
:103900002631D7F81431D3E9002302F40053C7F865
:10391000E8300023C7F8EC30D7E93A120B461343DE
:1039200056D0D7F814315B6EB3F5A02F33D0B3F572
:10393000A02F2CD8B3F5802F2FD0B3F5802F26D809
:10394000B3F5403F2BD0B3F5403F20D8B3F5003F4F
:1039500012D0B3F5003F1AD8002B22D0B3F5803F28
:1039600015D1D7F8143108330121184601F00EFAA9
:10397000034687F8273115E0D7F8143128330121A1
:10398000184601F0B5FA034687F827310AE001230B
:1039900087F8273106E000BF04E000BF02E000BF67
:1039A00000E000BF97F82731002B0DD1054B1B6DB0
:1039B00023F4E021D7F814315B6E024A0B43136500
:1039C00006E000BF0044025897F8273187F82631F7
:1039D000D7F81431D3E9002302F48043C7F8E0306C
:1039E0000023C7F8E430D7E938120B46134355D00B
:1039F000D7F81431D3F8B030B3F1A04F33D0B3F1CE
:103A0000A04F2CD8B3F1804F2FD0B3F1804F26D8E0
:103A1000B3F1405F2BD0B3F1405F20D8B3F1005F2A
:103A200012D0B3F1005F1AD8002B22D0B3F1805F1F
:103A300015D1D7F8143108330121184601F0A6F941
:103A4000034687F8273115E0D7F8143128330121D0
:103A5000184601F04DFA034687F827310AE00123A2
:103A600087F8273106E000BF04E000BF02E000BF96
:103A700000E000BF97F82731002B0BD1A34B9B6DC3
:103A800023F0E041D7F81431D3F8B0309F4A0B430C
:103A9000936503E097F8273187F82631D7F814317A
:103AA000D3E9002302F40043C7F8D8300023C7F855
:103AB000DC30D7E936120B46134337D0D7F8143130
:103AC0001B6FB3F1005F0ED0B3F1005F16D8002B6F
:103AD00018D0B3F1805F11D18C4BDB6A8B4A43F471
:103AE0000033D3620FE0D7F81431083301211846B0
:103AF00001F04CF9034687F8273104E0012387F8E9
:103B0000273100E000BF97F82731002B0AD17F4B07
:103B10001B6D23F04051D7F814311B6F7B4A0B43C8
:103B2000136503E097F8273187F82631D7F8143169
:103B3000D3E9002302F08073C7F8D0300023C7F820
:103B4000D430D7E934120B46134339D0D7F81431A7
:103B50009B6C032B1CD801A252F823F0993B000860
:103B60006D3B00087B3B0008993B0008674BDB6A14
:103B7000664A43F40033D3620FE0D7F814310833B8
:103B80000221184601F002F9034687F8273104E0C4
:103B9000012387F8273100E000BF97F82731002B79
:103BA0000AD15A4BDB6C23F00301D7F814319B6C1C
:103BB000564A0B43D36403E097F8273187F8263140
:103BC000D7F81431D3E9002302F48003C7F8C830D2
:103BD0000023C7F8CC30D7E932120B46134300F06C
:103BE0009F804B4B1B684A4A43F480731360FDF778
:103BF000C3FDC7F820010BE0FDF7BEFD0246D7F874
:103C00002031D31A642B03D9032387F8273105E029
:103C10003F4B1B6803F48073002BEDD097F82731DE
:103C2000002B79D1394B1A6FD7F81431D3F8B4304F
:103C3000534003F44073002B15D0344B1B6F23F417
:103C40004073C7F81C31314B1B6F304A43F480334B
:103C500013672E4B1B6F2D4A23F4803313672B4AB7
:103C6000D7F81C311367D7F81431D3F8B430B3F553
:103C7000807F18D1FDF780FDC7F820010DE0FDF72A
:103C80007BFD0246D7F82031D21A41F288339A429E
:103C900003D9032387F8273105E01C4B1B6F03F082
:103CA0000203002BEBD097F82731002B29D1D7F84E
:103CB0001431D3F8B43003F44073B3F5407F0ED120
:103CC000124B1B6923F47C51D7F81431D3F8B4306C
:103CD0001A09104B13400D4A0B43136105E00B4BBF
:103CE0001B690A4A23F47C531361084B196FD7F8F8
:103CF0001431D3F8B430C3F30B03044A0B431367F6
:103D00000EE097F8273187F8263109E00044025881
:103D100000480258CFFFFF0097F8273187F8263177
:103D2000D7F81431D3E9002302F00103C7F8C030FB
:103D30000023C7F8C430D7E930120B46134300F014
:103D40008980D7F81431DB6F282B6BD801A252F889
:103D500023F000BF2D3E0008253E0008253E000848
:103D6000253E0008253E0008253E0008253E0008A7
:103D7000253E0008F93D0008253E0008253E0008C4
:103D8000253E0008253E0008253E0008253E000887
:103D9000253E00080F3E0008253E0008253E00088D
:103DA000253E0008253E0008253E0008253E000867
:103DB000253E00082D3E0008253E0008253E00084F
:103DC000253E0008253E0008253E0008253E000847
:103DD000253E00082D3E0008253E0008253E00082F
:103DE000253E0008253E0008253E0008253E000827
:103DF000253E00082D3E0008D7F814310833012174
:103E0000184600F0C3FF034687F827310FE0D7F8C4
:103E1000143128330121184601F06AF8034687F867
:103E2000273104E0012387F8273100E000BF97F82D
:103E30002731002B0AD1BF4B5B6D23F03801D7F837
:103E40001431DB6FBB4A0B43536503E097F827310E
:103E500087F82631D7F81431D3E9002302F00203A2
:103E6000C7F8B8300023C7F8BC30D7E92E120B468C
:103E7000134341D0D7F814319B6F052B24D801A2EE
:103E800052F823F0D13E00089D3E0008B33E0008E2
:103E9000D13E0008D13E0008D13E0008D7F81431C9
:103EA00008330121184600F071FF034687F82731D7
:103EB0000FE0D7F8143128330121184601F018F823
:103EC000034687F8273104E0012387F8273100E013
:103ED00000BF97F82731002B0AD1964B5B6D23F07A
:103EE0000701D7F814319B6F924A0B43536503E0E7
:103EF00097F8273187F82631D7F81431D3E9002312
:103F000002F00403C7F8B0300023C7F8B430D7E993
:103F10002C120B46134344D0D7F81431D3F8943005
:103F2000052B25D801A252F823F000BF793F0008E5
:103F3000453F00085B3F0008793F0008793F0008D3
:103F4000793F0008D7F8143108330121184600F0F2
:103F50001DFF034687F827310FE0D7F814312833C7
:103F60000121184600F0C4FF034687F8273104E01A
:103F7000012387F8273100E000BF97F82731002B95
:103F80000BD16C4B9B6D23F00701D7F81431D3F89C
:103F90009430684A0B43936503E097F8273187F81C
:103FA0002631D7F81431D3E9002302F02003C7F8F3
:103FB000A8300023C7F8AC30D7E92A120B461343C8
:103FC00055D0D7F81431D3F89030B3F1A04F33D097
:103FD000B3F1A04F2CD8B3F1804F2FD0B3F1804F65
:103FE00026D8B3F1405F2BD0B3F1405F20D8B3F1B6
:103FF000005F12D0B3F1005F1AD8002B22D0B3F1CA
:10400000805F15D1D7F8143108330021184600F02D
:10401000BDFE034687F8273115E0D7F81431283361
:104020000221184600F064FF034687F827310AE0B2
:10403000012387F8273106E000BF04E000BF02E05B
:1040400000BF00E000BF97F82731002B0BD1394BA0
:104050005B6D23F0E041D7F81431D3F89030354A46
:104060000B43536503E097F8273187F82631D7F8DB
:104070001431D3E9002302F04003C7F8A030002335
:10408000C7F8A430D7E928120B46134358D0D7F805
:104090001431D3F89C30B3F5A05F33D0B3F5A05FF3
:1040A0002CD8B3F5805F2FD0B3F5805F26D8B3F559
:1040B000406F2BD0B3F5406F20D8B3F5006F12D00E
:1040C000B3F5006F1AD8002B22D0B3F5806F15D14D
:1040D000D7F8143108330021184600F057FE034684
:1040E00087F8273115E0D7F8143128330221184614
:1040F00000F0FEFE034687F827310AE0012387F827
:10410000273106E000BF04E000BF02E000BF00E08E
:1041100000BF97F82731002B0ED1064B9B6D23F47F
:10412000E051D7F81431D3F89C30024A0B43936521
:1041300006E000BF0044025897F8273187F826317F
:10414000D7F81431D3E9002302F08003C7F8983080
:104150000023C7F89C30D7E926120B46134355D0ED
:10416000D7F81431D3F8A030B3F5204F33D0B3F5DE
:10417000204F2CD8B3F5004F2FD0B3F5004F26D8E1
:10418000B3F5C04F2BD0B3F5C04F20D8B3F5804F57
:1041900012D0B3F5804F1AD8002B22D0B3F5005FB0
:1041A00015D1D7F8143108330021184600F0EEFD80
:1041B000034687F8273115E0D7F814312833022158
:1041C000184600F095FE034687F827310AE00123E0
:1041D00087F8273106E000BF04E000BF02E000BF1F
:1041E00000E000BF97F82731002B0BD1A14B9B6D4E
:1041F00023F46041D7F81431D3F8A0309D4A0B4323
:10420000936503E097F8273187F82631D7F8143102
:10421000D3E9002302F00803C7F890300023C7F861
:104220009430D7E924120B4613431ED0D7F814312B
:10423000D3F88430B3F5805F0CD1D7F8143128332C
:104240000221184600F054FE0346002B02D0012341
:1042500087F82631874B5B6D23F44051D7F8143132
:10426000D3F88430834A0B435365D7F81431D3E92C
:10427000002302F01003C7F888300023C7F88C3001
:10428000D7E922120B4613431ED0D7F81431D3F8C6
:104290009830B3F5807F0CD1D7F814312833022140
:1042A000184600F025FE0346002B02D0012387F8B4
:1042B0002631704B9B6D23F44071D7F81431D3F83D
:1042C00098306C4A0B439365D7F81431D3E9002337
:1042D00002F40023C7F880300023C7F88430D7E900
:1042E00020120B4613433ED0D7F81431D3F8A43034
:1042F000B3F5003F22D0B3F5003F1BD8002B03D00D
:10430000B3F5803F0BD015E0D7F814310833002106
:10431000184600F03BFD034687F827310FE0D7F839
:10432000143128330221184600F0E2FD034687F8D5
:10433000273104E0012387F8273100E000BF97F818
:104340002731002B0BD14B4B9B6D23F44031D7F819
:104350001431D3F8A430474A0B43936503E097F830
:10436000273187F82631D7F81431D3E9002302F436
:104370008023BB670023FB67D7E91E120B4613435C
:104380003BD0D7F81431D3F88830B3F5401F1FD095
:10439000B3F5401F18D8B3F5801F03D0B3F5001F45
:1043A00007D011E0334BDB6A324A43F40033D36267
:1043B0000FE0D7F8143128330121184600F098FD9A
:1043C000034687F8273104E0012387F8273100E00E
:1043D00000BF97F82731002B0BD1264B5B6D23F4E0
:1043E0004011D7F81431D3F88830224A0B43536573
:1043F00003E097F8273187F82631D7F81431D3E94D
:10440000002302F480333B6700237B67D7E91C124B
:104410000B46134334D0D7F814311B6D002B03D057
:10442000B3F5803F07D011E0124BDB6A114A43F429
:104430000033D3620EE0D7F8143108330221184656
:1044400000F0A4FC034687F8273103E0012387F836
:10445000273100BF97F82731002B0DD1054BDB6CBE
:1044600023F48031D7F814311B6D024A0B43D36417
:1044700006E000BF0044025897F8273187F826313C
:10448000D7F81431D3E9002302F00053BB660023B0
:10449000FB66D7E91A120B4613430CD0D7F8143138
:1044A00028330221184600F023FD0346002B02D0DA
:1044B000012387F82631D7F81431D3E9002302F419
:1044C00000333B6600237B66D7E918120B46134383
:1044D00038D0D7F81431D3F88030B3F5407F18D0F6
:1044E000B3F5407F11D8B3F5007F14D0B3F5007F4A
:1044F0000BD8002B11D0B3F5807F06D1C34BDB6AFC
:10450000C24A43F40033D36208E0012387F827311D
:1045100004E000BF02E000BF00E000BF97F82731D1
:10452000002B0BD1B94B5B6D23F44071D7F81431DC
:10453000D3F88030B54A0B43536503E097F8273131
:1045400087F82631D7F81431D3E9002302F4801319
:10455000BB650023FB65D7E916120B46134309D050
:10456000AA4B1B6D23F00041D7F814315B6FA74AAB
:104570000B431365D7F81431D3E9002302F08053BD
:104580003B6500237B65D7E914120B4613430AD021
:104590009E4B1B6923F48041D7F81431D3F8B8300F
:1045A0009A4A0B431361D7F81431D3E9002302F47C
:1045B0000013BB640023FB64D7E912120B461343BC
:1045C00009D0924B1B6D23F08071D7F81431DB6E4C
:1045D0008E4A0B431365D7F81431D3E9002302F058
:1045E00080433B6400237B64D7E910120B461343DE
:1045F0000ED0864B1B69854A23F400431361834B1D
:104600001969D7F81431D3F8BC30804A0B431361D1
:10461000D7F81431D3E9002302F00043BB63002331
:10462000FB63D7E90E120B46134309D0774BDB6CC3
:1046300023F04051D7F814315B6D744A0B43D364B7
:10464000D7F81431D3E9002302F400033B630023BD
:104650007B63D7E90C120B4613430AD06B4B5B6D9F
:1046600023F44001D7F81431D3F88C30674A0B4358
:104670005365D7F81431D3E900230021B96203F060
:104680000103FB62D7E90A120B46134311D0D7F896
:10469000143108330021184600F078FB034687F8F0
:1046A000273197F82731002B03D097F8273187F867
:1046B0002631D7F81431D3E900230021396203F001
:1046C00002037B62D7E908120B46134311D0D7F8D7
:1046D000143108330121184600F058FB034687F8CF
:1046E000273197F82731002B03D097F8273187F827
:1046F0002631D7F81431D3E900230021B96103F042
:104700000403FB61D7E906120B46134311D0D7F817
:10471000143108330221184600F038FB034687F8AD
:10472000273197F82731002B03D097F8273187F8E6
:104730002631D7F81431D3E900230021396103F081
:1047400008037B61D7E904120B46134311D0D7F855
:10475000143128330021184600F0CAFB034687F8BD
:10476000273197F82731002B03D097F8273187F8A6
:104770002631D7F81431D3E900230021B96003F0C2
:104780001003FB60D7E902120B46134311D0D7F890
:10479000143128330121184600F0AAFB034687F89C
:1047A000273197F82731002B03D097F8273187F866
:1047B0002631D7F81431D3E900230021396003F002
:1047C00020037B60D7E900120B46134311D0D7F8C2
:1047D000143128330221184600F08AFB034687F87B
:1047E000273197F82731002B03D097F8273187F826
:1047F000263197F82631002B01D1002300E0012358
:10480000184607F59477BD46BDE8B08F00440258BE
:1048100080B500AFFEF796FD0246064B1B6A1B09EA
:1048200003F007030449CB5C03F01F0322FA03F3F0
:10483000184680BD004402588012010880B489B037
:1048400000AF7860A14B9B6A03F00303BB619F4BF1
:104850009B6A1B0B03F03F037B619C4BDB6A1B09CC
:1048600003F001033B61994BDB6BDB08C3F30C03E3
:104870003A6902FB03F307EE903AF8EE677AC7ED68
:10488000037A7B69002B00F01181BB69022B00F0D9
:104890008380BB69022B00F2A180BB69002B03D08F
:1048A000BB69012B56D099E0884B1B6803F02003AD
:1048B000002B2DD0854B1B68DB0803F00303844AD3
:1048C00022FA03F3BB60BB6807EE903AF8EE676A22
:1048D0007B6907EE903AF8EE677A86EEA77A7B4B13
:1048E0009B6BC3F3080307EE903AF8EE676A97ED07
:1048F000036ADFED785AC6EE257A76EEA77AF7EEF0
:10490000006A77EEA67A67EE277AC7ED077A87E026
:104910007B6907EE903AF8EE677ADFED6F6A86EE14
:10492000A77A6A4B9B6BC3F3080307EE903AF8EE45
:10493000676A97ED036ADFED675AC6EE257A76EE71
:10494000A77AF7EE006A77EEA67A67EE277AC7EDC8
:10495000077A65E07B6907EE903AF8EE677ADFED5B
:104960005F6A86EEA77A594B9B6BC3F3080307EE89
:10497000903AF8EE676A97ED036ADFED565AC6EE95
:10498000257A76EEA77AF7EE006A77EEA67A67EEDA
:10499000277AC7ED077A43E07B6907EE903AF8EE95
:1049A000677ADFED4F6A86EEA77A484B9B6BC3F3BD
:1049B000080307EE903AF8EE676A97ED036ADFEDB9
:1049C000455AC6EE257A76EEA77AF7EE006A77EEBC
:1049D000A67A67EE277AC7ED077A21E07B6907EEB2
:1049E000903AF8EE677ADFED3D6A86EEA77A374BAC
:1049F0009B6BC3F3080307EE903AF8EE676A97EDF6
:104A0000036ADFED345AC6EE257A76EEA77AF7EE22
:104A1000006A77EEA67A67EE277AC7ED077A00BFBD
:104A20002A4B9B6B5B0A03F07F0307EE903AF8EE8C
:104A3000677AB7EE007A37EE877AD7ED076AC6EE67
:104A4000877AFCEEE77A17EE902A7B681A601F4B94
:104A50009B6B1B0C03F07F0307EE903AF8EE677A2E
:104A6000B7EE007A37EE877AD7ED076AC6EE877A17
:104A7000FCEEE77A17EE902A7B685A60134B9B6B2B
:104A80001B0E03F07F0307EE903AF8EE677AB7EE5D
:104A9000007A37EE877AD7ED076AC6EE877AFCEEA2
:104AA000E77A17EE902A7B689A6008E07B6800221C
:104AB0001A607B6800225A607B6800229A6000BFFF
:104AC0002437BD465DF8047B704700BF00440258A0
:104AD0000090D003000000460024744C0024744A67
:104AE00020BCBE4B80B489B000AF7860A14B9B6AFC
:104AF00003F00303BB619F4B9B6A1B0D03F03F0355
:104B00007B619C4BDB6A1B0A03F001033B61994B01
:104B10005B6CDB08C3F30C033A6902FB03F307EE9B
:104B2000903AF8EE677AC7ED037A7B69002B00F0C4
:104B30001181BB69022B00F08380BB69022B00F25C
:104B4000A180BB69002B03D0BB69012B56D099E033
:104B5000884B1B6803F02003002B2DD0854B1B686E
:104B6000DB0803F00303844A22FA03F3BB60BB684B
:104B700007EE903AF8EE676A7B6907EE903AF8EE36
:104B8000677A86EEA77A7B4B1B6CC3F3080307EEAC
:104B9000903AF8EE676A97ED036ADFED785AC6EE51
:104BA000257A76EEA77AF7EE006A77EEA67A67EEB8
:104BB000277AC7ED077A87E07B6907EE903AF8EE2F
:104BC000677ADFED6F6A86EEA77A6A4B1B6CC3F3D8
:104BD000080307EE903AF8EE676A97ED036ADFED97
:104BE000675AC6EE257A76EEA77AF7EE006A77EE78
:104BF000A67A67EE277AC7ED077A65E07B6907EE4C
:104C0000903AF8EE677ADFED5F6A86EEA77A594B45
:104C10001B6CC3F3080307EE903AF8EE676A97ED52
:104C2000036ADFED565AC6EE257A76EEA77AF7EEDE
:104C3000006A77EEA67A67EE277AC7ED077A43E037
:104C40007B6907EE903AF8EE677ADFED4F6A86EE01
:104C5000A77A484B1B6CC3F3080307EE903AF8EEB3
:104C6000676A97ED036ADFED455AC6EE257A76EE60
:104C7000A77AF7EE006A77EEA67A67EE277AC7ED95
:104C8000077A21E07B6907EE903AF8EE677ADFED6C
:104C90003D6A86EEA77A374B1B6CC3F3080307EE19
:104CA000903AF8EE676A97ED036ADFED345AC6EE84
:104CB000257A76EEA77AF7EE006A77EEA67A67EEA7
:104CC000277AC7ED077A00BF2A4B1B6C5B0A03F0FB
:104CD0007F0307EE903AF8EE677AB7EE007A37EE88
:104CE000877AD7ED076AC6EE877AFCEEE77A17EE89
:104CF000902A7B681A601F4B1B6C1B0C03F07F0310
:104D000007EE903AF8EE677AB7EE007A37EE877AD8
:104D1000D7ED076AC6EE877AFCEEE77A17EE902A9F
:104D20007B685A60134B1B6C1B0E03F07F0307EE6E
:104D3000903AF8EE677AB7EE007A37EE877AD7EDD9
:104D4000076AC6EE877AFCEEE77A17EE902A7B6850
:104D50009A6008E07B6800221A607B6800225A6033
:104D60007B6800229A6000BF2437BD465DF8047B53
:104D7000704700BF004402580090D0030000004676
:104D80000024744C0024744A20BCBE4B80B584B00F
:104D900000AF786039600023FB73534B9B6A03F0CC
:104DA0000303032B01D1012399E04F4B1B684E4AAB
:104DB00023F080631360FCF7DFFCB86008E0FCF7C9
:104DC000DBFC0246BB68D31A022B01D9032386E021
:104DD000454B1B6803F00063002BF0D1424B9B6AEC
:104DE00023F47C327B681B681B033F4913438B62AF
:104DF0007B685B68013BC3F308027B689B68013BEF
:104E00005B029BB21A437B68DB68013B1B0403F423
:104E1000FE031A437B681B69013B1B0603F0FE433C
:104E2000314913438B63304BDB6A23F0C0027B684C
:104E30005B692D491343CB622B4BDB6A23F02002C5
:104E40007B689B6928491343CB62274BDB6A264A60
:104E500023F01003D362244BDA6B244B13407A689F
:104E6000D269D20020491343CB631F4BDB6A1E4A31
:104E700043F01003D3623B68002B06D11A4BDB6A68
:104E8000194A43F40023D3620FE03B68012B06D19B
:104E9000154BDB6A144A43F48013D36205E0124BCE
:104EA000DB6A114A43F40013D3620F4B1B680E4AAE
:104EB00043F080631360FCF75FFCB86008E0FCF728
:104EC0005BFC0246BB68D31A022B01D9032306E020
:104ED000054B1B6803F00063002BF0D0FB7B1846EA
:104EE0001037BD4680BD00BF004402580700FFFFD9
:104EF00080B584B000AF786039600023FB73534BFA
:104F00009B6A03F00303032B01D1012399E04F4B6C
:104F10001B684E4A23F080531360FCF72DFCB860E9
:104F200008E0FCF729FC0246BB68D31A022B01D922
:104F3000032386E0454B1B6803F00053002BF0D1A0
:104F4000424B9B6A23F07C727B681B681B053F49C0
:104F500013438B627B685B68013BC3F308027B6889
:104F60009B68013B5B029BB21A437B68DB68013B99
:104F70001B0403F4FE031A437B681B69013B1B06F9
:104F800003F0FE43314913430B64304BDB6A23F4D7
:104F900040627B685B692D491343CB622B4BDB6A14
:104FA00023F400727B689B6928491343CB62274B2B
:104FB000DB6A264A23F48073D362244B5A6C244B59
:104FC00013407A68D269D200204913434B641F4BC7
:104FD000DB6A1E4A43F48073D3623B68002B06D120
:104FE0001A4BDB6A194A43F48003D3620FE03B6833
:104FF000012B06D1154BDB6A144A43F40003D3623C
:1050000005E0124BDB6A114A43F08073D3620F4B09
:105010001B680E4A43F080531360FCF7ADFBB86089
:1050200008E0FCF7A9FB0246BB68D31A022B01D9A2
:10503000032306E0054B1B6803F00053002BF0D060
:10504000FB7B18461037BD4680BD00BF00440258A8
:105050000700FFFF80B584B000AF78607B68002B4D
:1050600001D101230FE17B6800229A627B681B68F3
:10507000874A93420FD07B681B68864A93420AD0C6
:105080007B681B68844A934205D07B68DB680F2BE2
:1050900001D90123F7E0786800F020FFF8607B6811
:1050A0001B687B4A93420CD07B681B68794A934209
:1050B00007D07B681B68784A934202D0FB68082BB4
:1050C00011D87B681B68724A934209D07B681B68C1
:1050D000704A934204D07B681B686F4A934204D1A4
:1050E000FB68102B01D90123CDE07B6893F8813058
:1050F000DBB2002B06D17B68002283F88020786821
:10510000FBF7EEFE7B68022283F881207B681B6838
:105110001A687B681B6822F001021A607B681B68B2
:105120009B6803F4F813BB607B689B69B3F1806FE5
:1051300019D17B685B68B3F5800F03D17B689B6BEB
:10514000002B08D07B685B68002B0CD17B689B6BC5
:10515000B3F1805F07D17B681B681A687B681B68A6
:1051600042F480521A607B685B6803F48003002B72
:105170000FD07B68DB68062B0BD97B681B681B682C
:1051800023F480717B681A6D7B681B680A431A6080
:1051900007E07B681B681A687B681B6822F48072D2
:1051A0001A607B68DA697B689B6A1A43BB681A439A
:1051B0007B68DB6B42EA03017B68DA687B681B680B
:1051C0000A439A607B685A6B7B685B6A1A437B6808
:1051D0009B6B1A437B689B691A437B681B691A4364
:1051E0007B685B691A437B681B6A1A437B685B6850
:1051F0001A437B68DB6C1A437B689B681A437B68A5
:105200009B6C42EA03017B689A6D7B681B680A43CA
:10521000DA607B685B68002B13D17B681B689B6836
:1052200023F4C0527B681B6842F400629A607B687A
:105230001B689B6823F4C0627B681B6842F4806231
:105240009A607B681B681A6D7B681B6822F00102FC
:105250001A657B685B6803F48003002B0AD07B68C7
:105260001B68DB6823F000417B685A6D7B681B6814
:105270000A43DA607B680022C3F884207B6801223D
:1052800083F88120002318461037BD4680BD00BF3B
:105290000030014000380040003C004080B582B042
:1052A00000AF78607B68002B01D101231BE07B6895
:1052B000022283F881207B681B681A687B681B6860
:1052C00022F001021A607868FBF742FF7B68002237
:1052D000C3F884207B68002283F881207B68002249
:1052E00083F88020002318460837BD4680BD0000A3
:1052F00080B588B002AFF860B9603B601346FB80B0
:10530000FB681B6820337B61FCF736FA3861FB6869
:1053100093F88130DBB2012B01D00223D1E1BB68CD
:10532000002B02D0FB88002B01D10123C9E1FB68CF
:1053300093F88030012B01D10223C2E1FB680122E6
:1053400083F88020FB68032283F88120FB68002219
:10535000C3F88420FB68BA68DA65FB68FA88A3F8AA
:105360006020FB68FA88A3F86220FB6800225A6676
:10537000FB680022A3F86820FB680022A3F86A20DB
:10538000FB6800225A67FB6800221A67FB689B686B
:10539000B3F5C02F08D1FB681B681A68FB681B684F
:1053A00042F400621A6009E0FB681B68DB6823F4C2
:1053B000C022FB681B6842F40032DA60FB681B689D
:1053C0005A68964B1340F988FA6812680B43536089
:1053D000FB681B681A68FB681B6842F001021A60D0
:1053E000FB685B68B3F5800F07D1FB681B681A6820
:1053F000FB681B6842F400721A60FB68DB680F2BC5
:1054000047D93FE0FB681B685B6903F00203022B8E
:1054100014D1FB68DA6DFB681B6812681A62FB68BE
:10542000DB6D1A1DFB68DA65FB68B3F862309BB26E
:10543000013B9AB2FB68A3F8622023E0FCF79CF9D9
:1054400002463B69D31A3A689A4203D83B68B3F1E3
:10545000FF3F02D13B68002B14D1F86800F070FCCC
:10546000FB68D3F8843043F48072FB68C3F884206F
:10547000FB68012283F88120FB68002283F88020EA
:1054800003231EE1FB68B3F862309BB2002BB9D155
:10549000F1E0FB68DB68072B40F2E6805DE0FB682B
:1054A0001B685B6903F00203022B32D1FB68B3F87F
:1054B00062309BB2012B18D9FB68DB6B002B14D038
:1054C000FB68DA6DFB681B6812681A62FB68DB6DAB
:1054D0001A1DFB68DA65FB68B3F862309BB2023BC9
:1054E0009AB2FB68A3F8622037E0FB68DB6D1A888C
:1054F0007B691A80FB68DB6D9A1CFB68DA65FB68C8
:10550000B3F862309BB2013B9AB2FB68A3F8622009
:1055100023E0FCF731F902463B69D31A3A689A4214
:1055200003D83B68B3F1FF3F02D13B68002B14D195
:10553000F86800F005FCFB68D3F8843043F480720F
:10554000FB68C3F88420FB68012283F88120FB6894
:10555000002283F880200323B3E0FB68B3F86230B5
:105560009BB2002B9BD186E0FB681B685B6903F054
:105570000203022B54D1FB68B3F862309BB2032BB9
:1055800018D9FB68DB6B402B14D9FB68DA6DFB681C
:105590001B6812681A62FB68DB6D1A1DFB68DA650E
:1055A000FB68B3F862309BB2043B9AB2FB68A3F885
:1055B000622059E0FB68B3F862309BB2012B17D927
:1055C000FB68DB6B002B13D0FB68DB6D1A887B69F3
:1055D0001A80FB68DB6D9A1CFB68DA65FB68B3F820
:1055E00062309BB2023B9AB2FB68A3F862203BE0B8
:1055F000FB68DA6DFB681B68203312781A70FB6851
:10560000DB6D5A1CFB68DA65FB68B3F862309BB24D
:10561000013B9AB2FB68A3F8622025E00000FFFF7F
:10562000FCF7AAF802463B69D31A3A689A4203D8B3
:105630003B68B3F1FF3F02D13B68002B14D1F868FF
:1056400000F07EFBFB68D3F8843043F48072FB6883
:10565000C3F88420FB68012283F88120FB680022C4
:1056600083F8802003232CE0FB68B3F862309BB200
:10567000002B7FF479AF3B6900933B68002208213F
:10568000F86800F0FDFB0346002B07D0FB68D3F859
:10569000843043F02002FB68C3F88420F86800F0EF
:1056A0004FFBFB68012283F88120FB68002283F80E
:1056B0008020FB68D3F88430002B01D0012300E068
:1056C000002318461837BD4680BD00BF80B58EB098
:1056D00002AFF860B9607A607B80FB681B6820339A
:1056E0007B62FB681B6830333B62FB68DB6B5B09EA
:1056F0009BB20133FB83FCF73FF8B8617B887B8565
:105700007B883B85FB6893F88130DBB2012B01D0AD
:10571000022310E3BB68002B05D07B68002B02D06E
:105720007B88002B01D1012305E3FB6893F88030CF
:10573000012B01D10223FEE2FB68012283F88020C5
:10574000FB68052283F88120FB680022C3F88420CF
:10575000FB687A685A66FB687A88A3F86A20FB6857
:105760007A88A3F86820FB68BA68DA65FB687A88EB
:10577000A3F86220FB687A88A3F86020FB68002207
:105780001A67FB6800225A67FB681B68DA68FB68C7
:105790001B6822F4C022DA60FB681B68704A9342DF
:1057A00009D0FB681B686F4A934204D0FB681B68F2
:1057B0006D4A934202D11023FB6201E00823FB6291
:1057C000FB681B685A68694B13407988FA6812684D
:1057D0000B435360FB681B681A68FB681B6842F048
:1057E00001021A60FB685B68B3F5800F07D1FB68A4
:1057F0001B681A68FB681B6842F400721A60FB6839
:10580000DB680F2B40F2A280FB6A9B08FB6294E0EE
:10581000FB681B685B6903F00203022B20D17B8DC0
:10582000002B1DD03A8D798DFB6A0B449A4217D21A
:10583000FB68DA6DFB681B6812681A62FB68DB6D37
:105840001A1DFB68DA65FB68B3F862309BB2013B56
:105850009AB2FB68A3F86220FB68B3F862307B85DC
:10586000FB681B685B697B613B8D002B65D0FB6827
:105870001B685B6903F00103012B18D1FB681A68F0
:10588000FB685B6E126B1A60FB685B6E1A1DFB682F
:105890005A66FB68B3F86A309BB2013B9AB2FB6868
:1058A000A3F86A20FB68B3F86A303B8545E03A8D7F
:1058B000FB8B9A421DD27B6903F40043002B18D066
:1058C000FB681A68FB685B6E126B1A60FB685B6EA4
:1058D0001A1DFB685A66FB68B3F86A309BB2013B3D
:1058E0009AB2FB68A3F86A20FB68B3F86A303B857C
:1058F00023E0FBF741FF0246BB69D31ABA6B9A4219
:1059000003D8BB6BB3F1FF3F02D1BB6B002B14D1AB
:10591000F86800F015FAFB68D3F8843043F480721D
:10592000FB68C3F88420FB68012283F88120FB68B0
:10593000002283F880200323FDE17B8D002B7FF480
:1059400067AF3B8D002B7FF463AFCEE1FB68DB6874
:10595000072B40F2C281FB6A5B08FB62C9E000BF13
:105960000030014000380040003C00400000FFFFD4
:10597000FB681B685B6903F00203022B1FD17B8D60
:10598000002B1CD03A8D798DFB6A0B449A4216D2BB
:10599000FB68DB6D1A887B6A1A80FB68DB6D9A1CDA
:1059A000FB68DA65FB68B3F862309BB2013B9AB2E0
:1059B000FB68A3F86220FB68B3F862307B85FB6864
:1059C0001B685B697B613B8D002B00F09280FB685C
:1059D0001B685B6903F00103012B18D1FB685B6E48
:1059E0003A6A128892B21A80FB685B6E9A1CFB6856
:1059F0005A66FB68B3F86A309BB2013B9AB2FB6807
:105A0000A3F86A20FB68B3F86A303B8571E03A8DF1
:105A1000FB8B9A4228D27B6903F40043002B23D0EE
:105A2000FB685B6E3A6A128892B21A80FB685B6E02
:105A30009A1CFB685A66FB685B6E3A6A128892B2DF
:105A40001A80FB685B6E9A1CFB685A66FB68B3F8A9
:105A50006A309BB2023B9AB2FB68A3F86A20FB68EB
:105A6000B3F86A303B8544E03B8D012B1DD17B6947
:105A700003F40053002B18D0FB685B6E3A6A12885F
:105A800092B21A80FB685B6E9A1CFB685A66FB68D0
:105A9000B3F86A309BB2013B9AB2FB68A3F86A2064
:105AA000FB68B3F86A303B8523E0FBF765FE0246EE
:105AB000BB69D31ABA6B9A4203D8BB6BB3F1FF3FF1
:105AC00002D1BB6B002B14D1F86800F039F9FB68E8
:105AD000D3F8843043F48072FB68C3F88420FB68F9
